:10000000F62FFF1B0B2883137F1883170008840A21
:100010000319FF0A080000308A000408840A8207D6
:100020000034543465346D34703465347234613462
:1000300074347534723465343A340034453452348F
:0800400052344F3452340034F5
:100ABE0001308125772508001A30F000F00B652DE6
:100ACE00000008002730F000F00B6B2D6E2D080093
:100ADE00BF30F000722DF00B712D752D762D0800A4
:100AEE000530F1002630F000F00B7B2DF10B7B2D45
:100AFE0000000800F4008312031306137408D325B4
:100B0E00831203138617861363250800F4008312DD
:100B1E00031306177408D32583120313861786133F
:100B2E0063250800A62D7D08FF007C0884000120A7
:100B3E008D250130FC070318FD0A0030FD077D08E6
:100B4E0083120313FF007C0884000120003A031D6A
:100B5E00B12DB22D9A2D080083120313AB108316FC
:100B6E00031305128312031305126F258316031345
:100B7E000516692583120313051AC62DC72DC82D18
:100B8E00AB146F2583120313AB18CE2DCF2DD12DA1
:100B9E000310D22D03140800F1008030F00070080D
:100BAE00F2008312031306100612F3017108720588
:100BBE000319E22DE32DE52D8616E62D8612061479
:100BCE0006100310F20C0130F0007008F307083025
:100BDE007302031CF32DF42DDD2D061606120800EC
:100BEE00F201F301F30AF4018316031305128312C3
:100BFE000313051283160313051683120313051E22
:100C0E00092E0A2E0E2E7308F1007108F2046925C2
:100C1E000310F30D0130F1007108F407083074026F
:100C2E00031C1A2E1B2EFB2D72080800F200F40175
:100C3E00F40AF50172087405F1007108F3008316C9
:100C4E000313051283120313051273080319302EB2
:100C5E00312E342E831603130516692583160313BE
:100C6E0005160310F40D0130F1007108F507083078
:100C7E007502031C432E442E212E0800F600F501AA
:100C8E006F2E75087607F100710884008313000833
:100C9E00F2007208F40070087607F1007108840003
:100CAE000008F20075087607F300730884007208D6
:100CBE0080000130F1007108F5077408F10070082A
:100CCE007607F20072088400710880000130F0028D
:100CDE0070087502031C742E752E482E76080800B7
:100CEE00FB00831203132B11FA01FB1F7F2E802EA4
:100CFE00832EFB09FB0A2B150A30F0000030F100A1
:100D0E007B08F200F301F21BF303CC267008303E91
:100D1E00F9007A08263E840079088313800001309A
:100D2E00F9007908FA070A30F0000030F1007B086C
:100D3E00F200F301F21BF30325277008F90079087E
:100D4E00FB007B08031DAC2EAD2E832E83120313E6
:100D5E002B1DB22EB32EBF2E2D30F9007A08263E53
:100D6E0084007908831380000130F9007908FA07AE
:100D7E007A08263E8400831380017A08FF3EF9002C
:100D8E007908F000263045260800F601F31FD02E14
:100D9E00D12ED82EF209F309F20A0319F30AF6013D
:100DAE00F60AF11FDB2EDC2EE12EF009F109F00A16
:100DBE000319F10A700871040319E62EE72E162F97
:100DCE00F501F50AF52E01300310F00DF10DFF3E81
:100DDE00031DEB2E0130F4007408F507F11FF82EF9
:100DEE00F92EEA2E71087302031DFF2E700872028F
:100DFE00031C022F032F092F7008F2027108031C27
:100E0E00F303F30201300310F10CF00CFF3E031D4F
:100E1E000A2F0130F502031D152F162FF92E760815
:100E2E0003191A2F1B2F202FF209F309F20A0319A7
:100E3E00F30A7308F1007208F0000800F601F11FC2
:100E4E00292F2A2F312FF009F109F00A0319F10A7F
:100E5E00F601F60AF31F342F352F3E2FF209F30950
:100E6E00F20A0319F30A0130F4007408F606F701CA
:100E7E00F801700871040319452F462F7D2FF501D7
:100E8E00F50A542F01300310F00DF10DFF3E031D36
:100E9E004A2F0130F4007408F507F11F572F582F11
:100EAE00492F01300310F70DF80DFF3E031D592F8A
:100EBE0071087302031D652F70087202031C682FE0
:100ECE00692F702F7008F2027108031CF303F302EE
:100EDE00771401300310F10CF00CFF3E031D712F3F
:100EEE000130F502031D7C2F7D2F582F7608031934
:100EFE00812F822F872FF709F809F70A0319F80AAD
:100F0E007808F1007708F00008000E3083160313FE
:100F1E0086000C3081253830812519308316031355
:100F2E009900181598168312031398172B10B325D2
:100F3E00031CA22FA32FEE2FCC301D2683120313DA
:100F4E002B18AA2FAB2FC02F44301D26831203134C
:100F5E002B14083083120313A2009D30A10005301C
:100F6E00A000A00BB82FA10BB82FA20BB82F00001A
:100F7E009E2FBE301D26F72583120313A0002008D6
:100F8E00A300F72583120313A0002008A400F0305D
:100F9E00A0002008A3050F30A0002008A4052408F7
:100FAE002304A0002008A500A50E2B105F250130FC
:100FBE00FC008030FD009925831203132508772647
:100FCE00FC000030FD009925DF308D259E2F5F251A
:100FDE000E30FC008030FD009925B02F00288312C2
:100FEE000313A601A701A801A901AA01AB01830160
:020FFE008C2F36
:02400E00621F2F
:00000001FF
